:020000040000fa
:080000000002040000000000f2
:020000040000fa
:10000800aa020000aa020000aa020000aa02000038
:10001800aa020000aa020000aa020000aa02000028
:10002800aa020000aa020000aa020000aa02000018
:10003800aa020000aa020000aa020000aa02000008
:10004800aa020000aa020000a2020000aa02000000
:10005800aa020000aa020000aa020000aa020000e8
:10006800aa0200009a020000aa020000aa020000e8
:10007800aa020000aa020000aa020000aa020000c8
:10008800aa020000aa020000aa020000aa020000b8
:10009800aa020000aa020000aa020000aa020000a8
:1000a800aa020000aa020000aa020000aa02000098
:1000b800aa020000aa020000aa020000aa02000088
:1000c800aa020000aa020000aa020000aa02000078
:1000d800aa020000aa020000aa020000aa02000068
:1000e800aa020000aa020000aa020000aa02000058
:1000f800aa020000aa020000aa020000aa02000048
:10010800aa020000aa020000aa020000aa02000037
:10011800aa020000aa020000aa020000aa02000027
:10012800aa020000aa020000aa020000aa02000017
:10013800aa020000aa020000aa020000aa02000007
:10014800aa020000aa020000aa020000aa020000f7
:10015800aa020000aa020000aa020000aa020000e7
:10016800aa020000aa020000aa020000aa020000d7
:10017800aa020000aa020000aa020000aa020000c7
:10018800aa020000aa020000aa020000aa020000b7
:10019800aa020000aa020000aa020000aa020000a7
:1001a800aa020000aa020000aa020000aa02000097
:1001b800aa020000aa020000aa020000aa02000087
:1001c800aa020000aa020000aa020000aa02000077
:1001d800aa020000aa020000aa020000aa02000067
:1001e800aa020000aa020000aa020000aa02000057
:0801f800aa020000aa020000a7
:020000040000fa
:10020800aa020000aa020000aa020000aa02000036
:10021800aa020000aa020000aa020000aa02000026
:10022800aa020000aa020000aa020000aa02000016
:10023800aa020000aa020000aa020000aa02000006
:10024800aa020000aa020000a2020000aa020000fe
:10025800aa020000aa020000aa020000aa020000e6
:10026800aa0200009a020000aa020000aa020000e6
:10027800aa020000aa020000aa020000aa020000c6
:10028800aa020000aa020000aa020000aa020000b6
:10029800aa020000aa020000aa020000aa020000a6
:1002a800aa020000aa020000aa020000aa02000096
:1002b800aa020000aa020000aa020000aa02000086
:1002c800aa020000aa020000aa020000aa02000076
:1002d800aa020000aa020000aa020000aa02000066
:1002e800aa020000aa020000aa020000aa02000056
:1002f800aa020000aa020000aa020000aa02000046
:10030800aa020000aa020000aa020000aa02000035
:10031800aa020000aa020000aa020000aa02000025
:10032800aa020000aa020000aa020000aa02000015
:10033800aa020000aa020000aa020000aa02000005
:10034800aa020000aa020000aa020000aa020000f5
:10035800aa020000aa020000aa020000aa020000e5
:10036800aa020000aa020000aa020000aa020000d5
:10037800aa020000aa020000aa020000aa020000c5
:10038800aa020000aa020000aa020000aa020000b5
:10039800aa020000aa020000aa020000aa020000a5
:1003a800aa020000aa020000aa020000aa02000095
:1003b800aa020000aa020000aa020000aa02000085
:1003c800aa020000aa020000aa020000aa02000075
:1003d800aa020000aa020000aa020000aa02000065
:1003e800aa020000aa020000aa020000aa02000055
:0803f800aa020000aa020000a5
:020000040000fa
:10040000ef8e20000eff20000e018800000000008b
:10041000000020000000e000020032000001200087
:10042000200288000c000700a0b720000100200077
:1004300011000700000020000000e0000200320070
:100440000000020000000000d608020000000000ca
:100450000040da000000fe004440a900e000200057
:100460000000e0000300320000002000a00188002e
:100470004440a80000000600910188008000780038
:100480000000eb0015003700e280400032a0b4000d
:100490009101ba00e280400032a0b4009102ba009b
:1004a000e280400032a0b4000002eb00472bde00e7
:1004b000f507b200602ce10004003a000059eb009f
:1004c0008301e900fdff3e00040037006128e100e0
:1004d000010032000082eb00040007001101ba00a5
:1004e0000200e000e8ff3a00000006003159ba00bf
:1004f0008301e9000c0032002159ba008301e900b0
:10050000080032000400e00003003a00e2804000ee
:1005100032a0b400f5ff370011d9ba008301e90019
:10052000faff3a008100e800e180400032a0b40008
:10053000000006000000fa008620a9000080fa00f2
:10054000004006000000fa008540a9000080fa0083
:10055000004006000040da000000fe000600fa003d
:10056000000f780011079800220798001e027800fb
:10057000141288001e029000241288002e0290009f
:10058000041288000080fa000000060000027800d3
:1005900002003700315a78000201e900e00f5100f3
:1005a000fcff3a000000060000027800020037005d
:1005b000015a78000201e900e00f5100fcff3a0007
:0405c0000000060031
:020000040000fa
:1005c400486500006c6c00006f200000576f00004d
:0c05d400726c00006421000000000000b8
:020000040000fa
:1005e0000200fa000042eb00044f78000042eb00ea
:1005f000144798000042eb00044f78001b003700be
:100600009e4278000582fb00040242008402e8005a
:100610003484200004824200944278001e43780013
:100620000682fb00040342003484200004024300dd
:100630001443780004c2b30004427300854078007c
:1006400004407800bb0307009e4278000582fb004f
:100650008402420034842000048242001442780064
:1006600004407800880307001e4fe8001e4278000f
:10067000f44f5200e2ff360052c0b3001187200051
:10068000a0c2b300ba03070052c0b3001187200014
:1006900000c3b300b6030700d0c1b3007a0307005c
:1006a00000427800144798001e429000e04f52002c
:1006b00003003a0031c7b30000c5b3009d03070033
:1006c00054c1b300044f78001b0037001e4378006c
:1006d0000682fb00040242008402e8003484200009
:1006e00004824200944278001e4378000682fb0098
:1006f00004034200348420000402430014437800c1
:1007000004c2b300044273008540780004407800be
:10071000880307009e4278000582fb0084024200a5
:10072000348420000482420014427800044078009f
:10073000550307001e4fe8001e427800f64f520096
:10074000e2ff36000080fa00000006000600fa0012
:100750000042eb00044f78000042eb001447980081
:100760006022b80014079800250798000042eb00ab
:10077000044f7800250037000042eb001447980032
:10078000170037001e4290000483fb009e40780053
:100790000182fb00c222dd000480200004824200ae
:1007a0001402be009e4390008783fb00c33bdd0024
:1007b000870078008100e900030033008502d10042
:1007c0000482d300fbff3700844278000602470012
:1007d000254298001e4290000442e8001447980009
:1007e0001e429000e34f5200e6ff360004c2b30001
:1007f0001e4272008e82e80042c0b300850078007d
:10080000044078005a0307001e4fe8001e4278009b
:10081000e84f5200d8ff360094c0b300044f780070
:10082000260037000042eb001447980018003700fc
:100830001e4290000483fb009e4278000582fb006c
:10084000c222dd0004802000048242001402be00a7
:100850009e4390008783fb00e3831300c33bdd00ce
:10086000870078008100e900030033008502d10091
:100870000482d300fbff3700844278000602470061
:10088000254298001e4290000442e8001447980058
:100890001e429000e34f5200e5ff360004c2b30051
:1008a0001e4272008e82e80042c0b30085007800cc
:1008b000044078002e0307001e4fe8001e42780017
:1008c000ed4f5200d7ff3600b2c0b3008183200045
:1008d000e0c2b300260307000042eb00044f78009b
:1008e000110037001e4278000483fb008440800022
:1008f000954080009e4078008183fb00c33bdd0073
:10090000870078008100e900030033008502d100f0
:100910000482d300fbff37008442780006024700c0
:10092000254298001e4fe8001e427800e34f520017
:10093000ecff36002e4290006440b300244798003c
:100940000e82e80042c0b3008400780040c2b300c9
:1009500007030700ae42900094cfb30004c26200c8
:10096000244798000e82e80042c0b300840078005b
:1009700040c2b300fe0207000080fa00000006003b
:100980000000fa00400620003b030700cc82a900cb
:100990000040eb003b00070011ff07004001200072
:1009a0003503070010c0b3003600070067ff0700db
:1009b00040012000300307000040eb003100070039
:1009c000080007008040eb0020ceb300d9020700ea
:1009d0008040eb0010ceb300d60207000080fa0082
:1009e000000006000200fa000042eb00044f78000d
:1009f0008040eb0020ceb300ce02070001c7b30059
:100a000070c2b300cb020700cc82a9000040eb000b
:100a10009d02070000427800044f78001e14a000d9
:100a20001e04a0009e40780000c2b300c10207006f
:100a3000cc82a8000080fa00000006000200fa0044
:100a40000042eb00044f78008040eb0010ceb30072
:100a5000b8020700cc82a9000040eb008a02070020
:100a600000427800044f7800e4cfb3001e4f6200cc
:100a70009e40780000c2b300ae0207000080fa007a
:100a8000000006000400fa00204798000042eb0036
:100a9000044f780070c0b3007b020700004278006a
:100aa000044f780004c8b3001e4f62001e42780055
:100ab000e04f5200030032002e429000e04f5200ff
:100ac000060032001e427800e04f520006003a0055
:100ad0002e429000e04f52000300320031c5b300b7
:100ae00000c5b3009302070070c0b30066020700a0
:100af0000080fa00000006000400fa002047980079
:100b00000042eb00044f780060c0b3005e020700b3
:100b100000427800044f780074cdb3001e4f62008d
:100b20002e4290001e4f72009e40780060c2b300bb
:100b30008002070060c0b300530207000080fa0083
:100b4000000006000400fa00204798000042eb0075
:100b5000044f780060c0b3004b02070000427800e9
:100b6000044f780094cfb3001e4f62002e429000d5
:100b70001e4f72009e40780060c2b3006d020700f5
:100b800060c0b300400207000080fa0000000600c9
:100b90000400fa00204798000042eb00044f780060
:100ba0000040eb003802070000427800044f780054
:100bb0002e429000e14f520006003a001e14a000a1
:100bc0009e40780000c2b3005a020700cc82a80001
:100bd00006003700cc82a900d4cfb3001e4f6200bc
:100be0009e40780000c2b300520207000080fa0065
:100bf000000006000800fa00604798000042eb0081
:100c0000044f7800110037009e4078000183fb00fc
:100c100084408000954080009e4078008183fb00e6
:100c2000c33bdd00870078008100e900030033004a
:100c30008502d1000482d300fbff37008442780094
:100c400006024700154298001e4fe8001e42780039
:100c5000e34f5200ecff36006e429000e04f52002e
:100c600005003200ae42900004c2b30004c272001c
:100c70002447980004003700ae429000f4cdb30042
:100c800004c26200244798000e02e8008400780045
:100c900040c2b300c50007000080fa000000060053
:100ca0000600fa0010079800414798000042eb0048
:100cb000044f780061ff0700cc82a9004e419000ec
:100cc0009e00900000cab30029020700cc82a80051
:100cd000600020000100200041020700cc82a90032
:100ce0000042eb0004437800158c2000864a78000f
:100cf0000042eb0004437800258c2000864a7800ef
:100d00000300370000000000010037000000000071
:100d1000148c200014427800e04f52002200320070
:100d20000042eb0004437800158c2000864a7800ce
:100d300070c0b300d401070000427800044f78006f
:100d40001e4278008482fb000402200004826200bc
:100d5000e00f520005003a009e4278000582fb0039
:100d600070026200e00f5200e6ff32001e4378007e
:100d70000682fb0070026200e00f520003003200a6
:100d80008040eb0010ceb300ea0107008040eb008a
:100d900020ceb300e70107009e40780070c2b30088
:100da000e401070008003700248c2000144278007a
:100db000e94f5200d5ff36008040eb0010ceb30063
:100dc000dc0107000000000006ff07000080fa00b9
:100dd000000006000400fa000042eb0014479800ef
:100de0000042eb00244798000042eb00044f7800db
:100df0000042eb0034479800148c20001442780025
:100e0000e04f52002b00320070c0b3009e0107007b
:100e100000427800144798001e4290008482fb0034
:100e20000404200004826200e00f52000f00320030
:100e300041c1b300408c2000ab00070000427800a5
:100e400024479800ae409000408c2000bd00070071
:100e500000427800344798003e429000e04f520034
:100e600002003a0014c0b300044f78001e42900004
:100e70000482fb0070026200e00f520003003200a7
:100e80008040eb0010ceb300aa0107000042eb0047
:100e900004437800158c2000864a78008040eb00df
:100ea00020ceb300a30107009e40900070c2b300a3
:100eb000a00107001e427800044078000080fa007c
:100ec000000006000200fa00004f78001147980069
:100ed0001e4290000482fb00e20f52000900320023
:100ee000e30f520010003200e10f520017003a00e9
:100ef00044c0b30004437800b58d2000864a7800d2
:100f000012003700a4c0b30004437800b58d200060
:100f1000864a78006200200081052000c08d2000f4
:100f2000a1fd07000900370044c1b3000443780065
:100f3000b58d2000864a780002012000210a200099
:100f4000c08d200098fd0700000000009e42780040
:100f5000948d2000054a7800a48d2000144278006a
:100f60000442e80084427800a68d2000054b7800fa
:100f70000042eb0084427800868d2000054b78000b
:100f8000b48d20001442780084407800808d2000c9
:100f90006c0007000042780084427800868d2000b3
:100fa000054b78000080fa00000006000400fa00fb
:100fb000004f78001107980010c0b300b1fe070081
:100fc00042c0b3009e0090001e40780068010700f8
:100fd0000040eb00abfe07000080fa0000000600b6
:100fe0000400fa00004f78001107980010c0b30009
:100ff000a4fe070042c0b3009e0090001e4078008f
:101000002f0107000040eb009efe07000080fa0061
:10101000000006000400fa006022b800048fbe0041
:101020008e00780080c0b300edff07001e427800fc
:10103000044078000080fa00000006000600fa0074
:101040000042eb00044f7800110037009e4078000a
:101050000183fb0084408000954080009e40780022
:101060008183fb00c33bdd00870078008100e9003d
:10107000030033008502d1000482d300fbff370058
:101080008442780006024700154298001e4fe8008f
:101090001e427800e34f5200ecff3600ae42900053
:1010a000f4ceb30004c26200244798000e02e800a8
:1010b0008400780040c2b300bcff07000080fa0043
:1010c000000006000400fa00000f78002147980095
:1010d0002e4190009e00780000cab3002401070052
:1010e0000080fa00000006000600fa0010079800d1
:1010f000414798000042eb00044f780000c6b3005f
:10110000e100070000427800044f78004e42900052
:101110009e42780084cf5200020036004e4290007a
:10112000044f78001e4178009e00900010c6b30066
:10113000e30007001e427800044078000080fa00b7
:10114000000006000600fa001007980041479800ca
:101150000042eb00044f7800060037001e029000aa
:10116000144278001e4f42001e0290000402e80064
:10117000140798004e4290000482fb000402ea002b
:101180004f22de0004427800ce4290008542e90002
:1011900045479800e04f5200f0ff3a001ec2ea00b7
:1011a000044078000080fa00000006000600fa0003
:1011b000100798002107980084382100040f780058
:1011c000010037001e0fe9001e027800e00f5200f8
:1011d000fcff3a000002eb00042788000002eb004d
:1011e000142788003174200082072000a309200002
:1011f000824878008348780043e7b70021742000d4
:1012000010c0b300620420007305200082487800fb
:101210008348780080487800d2002000212e2800e2
:1012200020892000d9fc07007b000700d4fd0700bf
:1012300044c1b3000443780075872000864a7800d3
:1012400074c0b3000443780065872000864a7800a4
:10125000f4c0b3000443780085872000864a7800f4
:101260001900070050c0b300870007000042780053
:1012700004437800c58b2000864a780065ff07008c
:101280000042780004437800d58b2000864a78001d
:101290000042eb0004437800e58b2000864a78008a
:1012a000803e2000f4000700e48b20001442780008
:1012b0000442e80004437800e58b2000864a780069
:1012c00001000700f6ff37000000fa0003000700e6
:1012d000350007000080fa00000006000400fa0054
:1012e00094872000040f780054c1b300244798006d
:1012f000648720001442780004437800658720004a
:10130000864a78000442e80004437800658720009c
:10131000864a7800848720001442780004437800cd
:1013200085872000864a78000442e800044378005c
:1013300085872000864a78002e4290000442e8000b
:101340000443780075872000864a78000a00370039
:101350002e4290000482fb00f40212002489200037
:101360000482420014427800844278001e02780011
:10137000054a78001e0fe8002e4290000482fb0010
:101380000402ea004f22de0004427800ae429000e0
:101390008542e90025479800e04f5200ecff3a00f3
:1013a0000080fa00000006000000fa00a3fd07001c
:1013b000cc82a900c2c1b3006187200000cab3007b
:1013c0006b000700cc82a800a000200001002000d4
:1013d00083000700cc82a90082fd07000080fa008c
:1013e000000006000600fa0004122000040f780036
:1013f0000002eb001407980004002800240798005e
:101400002e0190009e0090001e00780053fc070003
:101410000080fa00000006000000fa00c882a9005f
:10142000c9e2a900c082a800c982a900c9a2a90076
:10143000c9c2a800ebff07000080fa000000060008
:101440000400fa00204798008540a9002e42900031
:101450000482fb0044128800000000002504800084
:101460000440200004826200e00f5200fbff3200c3
:1014700044128000044f78001e4278000440780037
:101480000080fa00000006000400fa0020479800df
:10149000cde2a9002e409000e9ff07000040eb00dc
:1014a000e7ff070000427800044f7800cde2a80073
:1014b0001e427800044078000080fa000000060018
:1014c0000600fa00004f7800110798004247980084
:1014d000cde2a9001e407800d9ff070008003700c0
:1014e0000040eb00d6ff0700004278009e0290000b
:1014f000844a78001e0290000402e8001407980055
:101500004e4290000482fb000402ea004f22de00fb
:1015100004427800ce4290008542e9004547980099
:10152000e04f5200eeff3a00cde2a8000080fa0042
:10153000000006000200fa00004f780011479800f2
:10154000cde2a9001e407800bdff07001e409000bc
:10155000bbff07000042780004437800c58e2000de
:10156000864a7800cde2a8000080fa00000006005c
:101570000600fa00004f78001107980042479800d3
:10158000cde2a9001e407800adff0700070037003c
:101590001e029000144278009e0290008502e8002e
:1015a0001507980004407800a5ff07004e42900000
:1015b0000482fb000402ea004f22de0004427800ad
:1015c000ce4290008542e90045479800e04f520026
:1015d000efff3a00cde2a8000080fa00000006000c
:1015e0000800fa002007980031079800be0290001a
:1015f0008402200004aab900040378002e0290009f
:101600006022b9000402780004034300ae02900097
:1016100084022000042ab8000503430086027800f3
:10162000048fbe001e03be0044fd2f00f5ff2f00f7
:101630000602420087824a00048fbe001e02be00de
:10164000e00f5200e08f5a00090034000400370018
:101650001e02be006b025200e0825a00048fbe00e0
:101660001e02be00e00f5200e08f5a00f8ff3c005f
:101670000080fa00000006000400fa00100798003d
:101680000f00370044c0b300044f78000300370058
:101690009001200001002000d1ff07001e427800c9
:1016a0008482fb008502ea00cf2ade0085427800b2
:1016b0000442e900044f7800e0cf5200f4ff3a0002
:1016c0001e02900004f0a7000402ea000402ea00ef
:1016d0004f22de00044278009e0290008502e9005d
:1016e00015079800e04f5200e6ff3a000080fa002c
:0416f00000000600f0
:020000040000fa
:1016f400760800004a00000000000000ec0800002a
:101704000200000000000000000800007600000055
:1017140002000000404b0100e2c04b000000d0007a
:10172400fc8c02009900390041d9be00860b2400cc
:10173400067fa6000000000000000000000000007a
:101744000000000000000000000000000000000095
:10175400000000000073120000008000b436410055
:101764001004820020080800f27def00ff000f0043
:1017740001000200010303000400050060060f00dd
:1017840007070800000900000cc30d00c40ec500c3
:101794000fc6110020122000132014002015200071
:1017a40016201700001c01001d042a002b2c2d00fc
:1017b40002000000c00800002c000000000000002f
:0417c4000000000021
:020000040000fa
:0200000401f009
:04000000ffff0000fe
:020000040000fa
:0200000401f009
:04000800ffff0000f6
:020000040000fa
:0200000401f009
:04000c00f9ff0000f8
:020000040000fa
:0200000401f009
:040010001bff0000d2
:020000040000fa
:0200000401f009
:040014005fff00008a
:020000040000fa
:0200000401f009
:04001800ffff0000e6
:020000040000fa
:0200000401f009
:04001c00ffff0000e2
:020000040000fa
:0200000401f009
:040020007fff00005e
:00000001FF
