:020000040000fa
:080000000002040000000000f2
:020000040000fa
:10000800ea020000ea020000ea020000ea02000038
:10001800ea020000ea020000ea020000ea02000028
:10002800ea020000ea020000ea020000aa02000058
:10003800ea020000ea020000ea020000ea02000008
:10004800ea020000ea020000a2020000ea02000040
:10005800ea020000ea020000ea020000ea020000e8
:10006800ea0200009a020000ea020000d202000040
:10007800ea020000ea020000ea020000ea020000c8
:10008800ea020000ea020000ea020000ea020000b8
:10009800ea020000ea020000ea020000ea020000a8
:1000a800ea020000ea020000ea020000ea02000098
:1000b800ea020000ea020000ea020000ea02000088
:1000c800ea020000ea020000ea020000ea02000078
:1000d800ea020000ea020000ea020000ea02000068
:1000e800ea020000ea020000ea020000ea02000058
:1000f800ea020000ea020000ea020000ea02000048
:10010800ea020000ea020000ea020000ea02000037
:10011800ea020000ea020000ea020000ea02000027
:10012800ea020000ea020000ea020000ea02000017
:10013800ea020000ea020000ea020000ea02000007
:10014800ea020000ea020000ea020000ea020000f7
:10015800ea020000ea020000ea020000ea020000e7
:10016800ea020000ea020000ea020000ea020000d7
:10017800ea020000ea020000ea020000ea020000c7
:10018800ea020000ea020000ea020000ea020000b7
:10019800ea020000ea020000ea020000ea020000a7
:1001a800ea020000ea020000ea020000ea02000097
:1001b800ea020000ea020000ea020000ea02000087
:1001c800ea020000ea020000ea020000ea02000077
:1001d800ea020000ea020000ea020000ea02000067
:1001e800ea020000ea020000ea020000ea02000057
:0801f800ea020000ea02000027
:020000040000fa
:10020800ea020000ea020000ea020000ea02000036
:10021800ea020000ea020000ea020000ea02000026
:10022800ea020000ea020000ea020000aa02000056
:10023800ea020000ea020000ea020000ea02000006
:10024800ea020000ea020000a2020000ea0200003e
:10025800ea020000ea020000ea020000ea020000e6
:10026800ea0200009a020000ea020000d20200003e
:10027800ea020000ea020000ea020000ea020000c6
:10028800ea020000ea020000ea020000ea020000b6
:10029800ea020000ea020000ea020000ea020000a6
:1002a800ea020000ea020000ea020000ea02000096
:1002b800ea020000ea020000ea020000ea02000086
:1002c800ea020000ea020000ea020000ea02000076
:1002d800ea020000ea020000ea020000ea02000066
:1002e800ea020000ea020000ea020000ea02000056
:1002f800ea020000ea020000ea020000ea02000046
:10030800ea020000ea020000ea020000ea02000035
:10031800ea020000ea020000ea020000ea02000025
:10032800ea020000ea020000ea020000ea02000015
:10033800ea020000ea020000ea020000ea02000005
:10034800ea020000ea020000ea020000ea020000f5
:10035800ea020000ea020000ea020000ea020000e5
:10036800ea020000ea020000ea020000ea020000d5
:10037800ea020000ea020000ea020000ea020000c5
:10038800ea020000ea020000ea020000ea020000b5
:10039800ea020000ea020000ea020000ea020000a5
:1003a800ea020000ea020000ea020000ea02000095
:1003b800ea020000ea020000ea020000ea02000085
:1003c800ea020000ea020000ea020000ea02000075
:1003d800ea020000ea020000ea020000ea02000065
:1003e800ea020000ea020000ea020000ea02000055
:0803f800ea020000ea02000025
:020000040000fa
:10040000ef8a20000eff20000e018800000000008f
:10041000000020000000e000020032000001200087
:10042000200288000c000700a0e720000100200047
:1004300011000700000020000000e0000200320070
:1004400000000200000000005c0d0200000000003f
:100450000040da000000fe004440a9000000200037
:100460000000e0000300320000002000a00188002e
:100470004440a80000000600910188008000780038
:100480000000eb0015003700e280400032a0b4000d
:100490009101ba00e280400032a0b4009102ba009b
:1004a000e280400032a0b4000002eb00472bde00e7
:1004b000f507b200602ce10004003a000059eb009f
:1004c0008301e900fdff3e00040037006128e100e0
:1004d000010032000082eb00040007001101ba00a5
:1004e0000200e000e8ff3a00000006003159ba00bf
:1004f0008301e9000c0032002159ba008301e900b0
:10050000080032000400e00003003a00e2804000ee
:1005100032a0b400f5ff370011d9ba008301e90019
:10052000faff3a008100e800e180400032a0b40008
:10053000000006000000fa008620a9000080fa00f2
:10054000004006000000fa008540a9000080fa0083
:1005500000400600849fbe00861f78000000fa005d
:100560008460a90094872000144278000442e800c7
:100570000443780095872000864a7800848720000d
:10058000144278000442e800044378008587200084
:10059000864a78000080fa004f0378004f02be00c0
:1005a00000400600849fbe00861f78000000fa000d
:1005b0008660a90014c0b30004437800758720004a
:1005c000864a78000080fa004f0378004f02be0090
:1005d000004006000040da000000fe000000fa00c3
:1005e00006a2a9000682a8000080fa00000006000a
:1005f0000000fa0007e2a9009600a9009620a900d1
:100600008600a9008620a9000080fa0000000600ec
:100610000200fa00000f78008600a9008620a900d9
:100620001e0278000442780067426200674262005e
:10063000674262000482fb00670262006605800078
:1006400085ff2f00850263000502720064058800a3
:10065000040720001e0262004422de0004427800eb
:10066000674262000482fb00670262004422dd00f0
:1006700066058000f5f82f00850263000502720010
:10068000640588009e027800688262004322de00d2
:1006900004427800614262000482fb006102620051
:1006a000b6048000e5ff2f0085026300050272009a
:1006b000b4048800040820001e0262004722de0005
:1006c00004427800614262000482fb006102620021
:1006d00004024200b6048000d5ff2f0085026300ab
:1006e00005027200b40488000080fa0000000600d1
:1006f0000000fa0000000000341080006102620077
:10070000e00f5200fcff3a003410800062026200e9
:10071000e00f5200f8ff3a003410800064026200db
:10072000e00f5200f4ff3a003410800068026200cb
:10073000e00f5200f0ff3a003410800070026200b7
:10074000e00f5200ecff3a00451080000400240046
:1007500004826200e00f5200e7ff3a000080fa00d6
:10076000000006000000fa000662a8000000000079
:100770003410800068026200e00f5200fcff3a0073
:1007800008c2a900041080000442780004407800e8
:100790000080fa00000006000200fa00004f780016
:1007a0009e4278000582fb001410880045108000ee
:1007b0000408200004826200e00f520002003200b0
:1007c00000c2eb00010037000042eb00044078005b
:1007d0000080fa00000006000000fa0006a2a8004f
:1007e0000682a8000080fa00000006000400fa005b
:1007f000000f7800110798001e0290002410880056
:100800001e027800341088000080fa000000060004
:100810000000fa000622a8000080fa00000006008e
:100820000000fa000602a8000080fa00000006009e
:100830000000fa000642a8000080fa00000006004e
:100840000600fa00000f78001107980022079800b0
:100850001e027800141288001e02900024128800e4
:100860002e029000041288000080fa0000000600aa
:100870000200fa00000f78008460a9001e027800d0
:100880000442780067426200674262006742620089
:100890000482fb00670262004c22dd002605800016
:1008a000f5ff280085026300050272002405880018
:1008b0009e027800688262004322de0004427800d3
:1008c000614262000482fb00610262004322dd009b
:1008d000a604800075ff2f008502630005027200e8
:1008e000a40488000080fa00000006000400fa005a
:1008f000000f7800110798000002eb000408880040
:100900001e029000140888001e0278002408880047
:100910000080fa00000006000002780002003700a4
:10092000015a78000201e900e00f5100fcff3a0093
:0409300000000600bd
:020000040000fa
:100934000200fa000042eb00044f78000042eb0092
:10094400144798000042eb00044f78001b00370066
:100954009e4278000582fb00040242008402e80003
:100964003484200004824200944278001e437800bc
:100974000682fb0004034200348420000402430086
:100984001443780004c2b300044273008540780025
:10099400044078001c0407009e4278000582fb0096
:1009a400840242003484200004824200144278000d
:1009b40004407800e90307001e4fe8001e42780057
:1009c400f44f5200e2ff360052c0b30011872000fa
:1009d400a0c2b3001b04070052c0b300118720005b
:1009e40000c3b30017040700d0c1b300db03070042
:1009f40000427800144798001e429000e04f5200d5
:100a040003003a0031c7b30000c5b300fe0307007a
:100a140054c1b300044f78001b0037001e43780014
:100a24000682fb00040242008402e80034842000b1
:100a340004824200944278001e4378000682fb0040
:100a44000403420034842000040243001443780069
:100a540004c2b30004427300854078000440780067
:100a6400e90307009e4278000582fb0084024200ed
:100a74003484200004824200144278000440780048
:100a8400b60307001e4fe8001e427800f64f5200de
:100a9400e2ff36000080fa00000006000600fa00bb
:100aa4000042eb00044f78000042eb00144798002a
:100ab4006022b80014079800250798000042eb0054
:100ac400044f7800250037000042eb0014479800db
:100ad400170037001e4290000483fb009e407800fc
:100ae4000182fb00c222dd00048020000482420057
:100af4001402be009e4390008783fb00c33bdd00cd
:100b0400870078008100e900030033008502d100ea
:100b14000482d300fbff37008442780006024700ba
:100b2400254298001e4290000442e80014479800b1
:100b34001e429000e34f5200e6ff360004c2b300a9
:100b44001e4272008e82e80042c0b3008500780025
:100b540004407800bb0307001e4fe8001e427800e3
:100b6400e84f5200d8ff360094c0b300044f780019
:100b7400260037000042eb001447980018003700a5
:100b84001e4290000483fb009e4278000582fb0015
:100b9400c222dd0004802000048242001402be0050
:100ba4009e4390008783fb00e3831300c33bdd0077
:100bb400870078008100e900030033008502d1003a
:100bc4000482d300fbff370084427800060247000a
:100bd400254298001e4290000442e8001447980001
:100be4001e429000e34f5200e5ff360004c2b300fa
:100bf4001e4272008e82e80042c0b3008500780075
:100c0400044078008f0307001e4fe8001e4278005e
:100c1400ed4f5200d7ff3600b2c0b30081832000ed
:100c2400e0c2b300870307000042eb00044f7800e2
:100c3400110037001e4278000483fb0084408000ca
:100c4400954080009e4078008183fb00c33bdd001b
:100c5400870078008100e900030033008502d10099
:100c64000482d300fbff3700844278000602470069
:100c7400254298001e4fe8001e427800e34f5200c0
:100c8400ecff36002e4290006440b30024479800e5
:100c94000e82e80042c0b3008400780040c2b30072
:100ca40068030700ae42900094cfb30004c2620010
:100cb400244798000e82e80042c0b3008400780004
:100cc40040c2b3005f0307000080fa000000060082
:100cd4000000fa0040062000e6030700cc82a900c9
:100ce4000040eb003b00070011ff0700400120001b
:100cf400e003070010c0b3003600070067ff0700d9
:100d040040012000db0307000040eb003100070036
:100d1400080007008040eb0020ceb3003a03070030
:100d24008040eb0010ceb300370307000080fa00c8
:100d3400000006000200fa000042eb00044f7800b5
:100d44008040eb0020ceb3002f03070001c7b3009f
:100d540070c2b3002c030700cc82a9000040eb0052
:100d6400fe02070000427800044f78001e14a00021
:100d74001e04a0009e40780000c2b30022030700b6
:100d8400cc82a8000080fa00000006000200fa00ed
:100d94000042eb00044f78008040eb0010ceb3001b
:100da40019030700cc82a9000040eb00eb02070006
:100db40000427800044f7800e4cfb3001e4f620075
:100dc4009e40780000c2b3000f0307000080fa00c1
:100dd400000006000400fa00204798000042eb00df
:100de400044f780070c0b300dc02070000427800b2
:100df400044f780004c8b3001e4f62001e427800fe
:100e0400e04f5200030032002e429000e04f5200a7
:100e1400060032001e427800e04f520006003a00fd
:100e24002e429000e04f52000300320031c5b3005f
:100e340000c5b300f402070070c0b300c702070086
:100e44000080fa00000006000400fa002047980021
:100e54000042eb00044f780060c0b300bf020700fb
:100e640000427800044f780074cdb3001e4f620036
:100e74002e4290001e4f72009e40780060c2b30064
:100e8400e102070060c0b300b40207000080fa006a
:100e9400000006000400fa00204798000042eb001e
:100ea400044f780060c0b300ac0207000042780031
:100eb400044f780094cfb3001e4f62002e4290007e
:100ec4001e4f72009e40780060c2b300ce0207003d
:100ed40060c0b300a10207000080fa000000060011
:100ee4000400fa00204798000042eb00044f780009
:100ef4000040eb009902070000427800044f78009c
:100f04002e429000e14f520006003a001e14a00049
:100f14009e40780000c2b300bb020700cc82a80048
:100f240006003700cc82a900d4cfb3001e4f620064
:100f34009e40780000c2b300b30207000080fa00ac
:100f4400000006000800fa00604798000042eb0029
:100f5400044f7800110037009e4078000183fb00a5
:100f640084408000954080009e4078008183fb008f
:100f7400c33bdd00870078008100e90003003300f3
:100f84008502d1000482d300fbff3700844278003d
:100f940006024700154298001e4fe8001e427800e2
:100fa400e34f5200ecff36006e429000e04f5200d7
:100fb40005003200ae42900004c2b30004c27200c5
:100fc4002447980004003700ae429000f4cdb300eb
:100fd40004c26200244798000e02e80084007800ee
:100fe40040c2b300df0007000080fa0000000600e2
:100ff4000600fa0010079800414798000042eb00f1
:10100400044f780061ff0700cc82a9004e41900094
:101014009e00900000cab3008a020700cc82a80098
:101024006000200001002000ec020700cc82a9002f
:101034000042eb000443780075872000864a78005c
:101044000042eb000443780085872000864a78003c
:10105400030037000000000001003700000000001a
:101064007487200014427800e04f520022003200be
:101074000042eb000443780075872000864a78001c
:1010840070c0b3003502070000427800044f7800b6
:101094001e4278008482fb00040220000482620065
:1010a400e00f520005003a009e4278000582fb00e2
:1010b40070026200e00f5200e6ff32001e43780027
:1010c4000682fb0070026200e00f5200030032004f
:1010d4008040eb0010ceb3004b0207008040eb00d1
:1010e40020ceb300480207009e40780070c2b300cf
:1010f4004502070008003700848720001442780066
:10110400e94f5200d5ff36008040eb0010ceb3000b
:101114003d0207000000000006ff07000080fa00ff
:10112400000006000400fa000042eb001447980097
:101134000042eb00244798000042eb00044f780083
:101144000042eb0034479800748720001442780072
:10115400e04f52002b00320070c0b300ff010700c3
:1011640000427800144798001e4290008482fb00dd
:101174000404200004826200e00f52000f003200d9
:1011840041c1b300a0872000c500070000427800d9
:1011940024479800ae409000a0872000d7000700a5
:1011a40000427800344798003e429000e04f5200dd
:1011b40002003a0014c0b300044f78001e429000ad
:1011c4000482fb0070026200e00f52000300320050
:1011d4008040eb0010ceb3000b0207000042eb008e
:1011e4000443780075872000864a78008040eb002d
:1011f40020ceb300040207009e40900070c2b300ea
:10120400010207001e427800044078000080fa00c2
:10121400000006000200fa00004f78001147980011
:101224001e4290000482fb00e20f520009003200cb
:10123400e30f52002a003200e10f520031003a005d
:1012440044c0b3000443780015892000864a78001e
:101254002c003700a4c0b300044378001589200093
:10126400864a7800248a20001442780004437800d7
:1012740025892000864a7800348a200014427800a8
:101284000443780035892000864a7800448a200087
:10129400144278000443780045892000864a780087
:1012a400548a2000144278000443780055892000b1
:1012b400864a7800648a2000144278000443780047
:1012c40065892000864a7800748a200014427800d8
:1012d4000443780075892000864a780009003700a5
:1012e40044c1b3000443780015892000864a78007d
:1012f40002012000210a20002089200085fd07002a
:10130400000000009e427800f4882000054a78001e
:1013140004892000144278000442e80084427800e2
:1013240006892000054b78000042eb0084427800d7
:10133400e6882000054b78001489200014427800c8
:1013440084407800e08820006c00070000427800a8
:1013540084427800e6882000054b78000080fa007b
:10136400000006000400fa00004f780011079800fe
:1013740010c0b30097fe070042c0b3009e00900067
:101384001e407800af0107000040eb0091fe07000b
:101394000080fa00000006000400fa00004f780004
:1013a4001107980010c0b3008afe070042c0b300c2
:1013b4009e0090001e407800760107000040eb007c
:1013c40084fe07000080fa00000006000400fa0012
:1013d4006022b800048fbe008e00780080c0b30085
:1013e400edff07001e427800044078000080fa00f8
:1013f400000006000600fa000042eb00044f7800eb
:10140400110037009e4078000183fb008440800077
:10141400954080009e4078008183fb00c33bdd0043
:10142400870078008100e900030033008502d100c1
:101434000482d300fbff3700844278000602470091
:10144400154298001e4fe8001e427800e34f5200f8
:10145400ecff3600ae429000f4ceb30004c262004a
:10146400244798000e02e8008400780040c2b300cc
:10147400bcff07000080fa00000006000400fa0028
:10148400000f7800214798002e4190009e007800bc
:1014940000cab3006b0107000080fa0000000600d8
:1014a4000600fa0010079800414798000042eb003c
:1014b400044f780000c6b3002801070000427800fa
:1014c400044f78004e4290009e42780084cf520030
:1014d400020036004e429000044f78001e4178000e
:1014e4009e00900010c6b3002a0107001e42780037
:1014f400044078000080fa00000006000600fa00ac
:1015040010079800414798000042eb00044f780010
:10151400060037001e029000144278001e4f42005d
:101524001e0290000402e800140798004e42900046
:101534000482fb000402ea004f22de000442780029
:10154400ce4290008542e90045479800e04f5200a2
:10155400f0ff3a001ec2ea00044078000080fa005e
:10156400000006000400fa000002eb00040f7800fb
:101574000002eb0014079800c902a800c922a800c1
:101584001afc07000000eb0020fc07000400280000
:10159400040f780074022000140798009e00900045
:1015a4001e00780090fc07000080fa00000006008e
:1015b4000000fa004dfc07000080fa00000006005d
:1015c4000000fa0091fc070048fc07000080fa00c4
:1015d400000006000000fa00fffb070043fc0700c0
:1015e4000080fa00000006000000fa0079fc070001
:1015f4003efc07000080fa00000006000000fa002c
:101604003afc070085fc070000000000341080004d
:1016140061026200e00f5200fcff3a008620a9003c
:101624000080fa00000006000200fa00004f780073
:101634001e40780057fc07000000000044108000a2
:1016440061026200e00f5200fcff3a00000000005b
:101654003404800062026200e00f5200fcff32009a
:101664008620a90000000000451080000400280026
:1016740004826200e00f5200fbff3a000080fa008f
:10168400000006000200fa0035fc07000042780062
:10169400044f7800c6ff07001e427800044078001b
:1016a4000080fa00000006000000fa000ffc0700aa
:1016b4005efc070000000000341080006402620039
:1016c400e00f5200fcff3a000080fa000000060020
:1016d4000000fa00a3ff0700c8ff070040cab300d8
:1016e400d1ff07000040eb00cfff0700eeff07002b
:1016f400e00120005f010700c0ff070040cab300fb
:10170400c9ff07000040eb00c7ff0700e6ff070022
:10171400e001200057010700b8ff070040cab300ea
:10172400c1ff07000040eb00bfff0700deff07001a
:10173400e00120004f010700b0ff070040cab300da
:10174400b9ff070000cfb300b7ff070050c5b300cf
:10175400b5ff0700d4ff0700e001200045010700a2
:10176400a6ff070040cab300afff0700b0cfb30025
:10177400adff07000040eb00abff0700caff070006
:10178400e00120003b0107009cff070040cab300b2
:10179400a5ff070000c4b300a3ff07000040eb004f
:1017a400a1ff0700c0ff0700e0012000310107008e
:1017b40092ff070040cab3009bff07000040eb0004
:1017c40099ff0700b8ff0700e00120002901070086
:1017d4000080fa00000006000000fa0087ff0700fe
:1017e40040cab30090ff07000040eb008eff0700e3
:1017f400adff07000080fa00000006000000fa00b8
:10180400f5ff07004001200001002000f30007005d
:101814007aff070050cab30083ff070099ff07004f
:101824000042780004437800258a2000864a780024
:1018340068ff070093ff0700004278000443780024
:10184400358a2000864a780062ff07008dff070072
:101854000042780004437800458a2000864a7800d4
:101864005cff070087ff070000427800044378000c
:10187400558a2000864a780056ff070081ff07003a
:101884000042780004437800658a2000864a780084
:1018940050ff07007bff07000042780004437800f4
:1018a400758a2000864a78004fff07007eff0700f4
:1018b4000080fa00000006000600fa00041220006e
:1018c400040f78000002eb001407980004002800bd
:1018d400240798002e0190009e0090001e007800be
:1018e400d6fb07000080fa00000006000000fa00a2
:1018f400c882a900c9e2a900c082a800c982a900bf
:10190400c9a2a900c9c2a800ebff07000080fa0021
:10191400000006000400fa00204798008540a90052
:101924002e4290000482fb00441288000000000054
:10193400250480000440200004826200e00f52006d
:10194400fbff320044128000044f78001e427800ee
:10195400044078000080fa00000006000400fa0049
:1019640020479800cde2a9002e409000e9ff07002f
:101974000040eb00e7ff070000427800044f7800c6
:10198400cde2a8001e427800044078000080fa00ee
:10199400000006000600fa00004f780011079800c6
:1019a40042479800cde2a9001e407800d9ff070005
:1019b400080037000040eb00d6ff07000042780023
:1019c4009e029000844a78001e0290000402e800ff
:1019d400140798004e4290000482fb000402ea00bf
:1019e4004f22de0004427800ce4290008542e90096
:1019f40045479800e04f5200eeff3a00cde2a800c0
:101a04000080fa00000006000200fa00004f78008f
:101a140011479800cde2a9001e407800bdff0700e1
:101a24001e409000bbff070000427800044378008a
:101a3400c58a2000864a7800cde2a8000080fa001a
:101a4400000006000600fa00004f78001107980015
:101a540042479800cde2a9001e407800adff070080
:101a6400070037001e029000144278009e02900086
:101a74008502e8001507980004407800a5ff0700d8
:101a84004e4290000482fb000402ea004f22de0072
:101a940004427800ce4290008542e9004547980010
:101aa400e04f5200efff3a00cde2a8000080fa00b8
:101ab400000006000400fa00000f780011079800e7
:101ac400243a80000480a1000490a10004a0a10095
:101ad400243a88000002eb00042788000002eb008f
:101ae40014278800270007002e0007007fff070047
:101af40077fc0700f6fe070021c0b300a0ccb300ba
:101b0400c4fd070014892000144278008440780042
:101b1400e088200036fd070050c0b3008fff0700a7
:101b24000042780004437800858a2000864a7800c1
:101b340026fe07000042780004437800958a2000be
:101b4400864a78000042eb0004437800a58a20000e
:101b5400864a7800a00020004600070027ff0700ff
:101b640021c0b300a0ccb300aafd07001489200053
:101b74001442780084407800e08820001cfd0700af
:101b8400f4ff37000000fa00a0ff2f0037fb070026
:101b9400a10f2000d0fa2d0053fb07000080fa00ab
:101ba400000006000000fa00c082a8006200a8003d
:101bb4006e00a9005600a9008660a9009660a800de
:101bc4006405800004c0a10004d0a10004e0a000ca
:101bd400640588000080fa00000006000800fa008e
:101be4002007980031079800be029000040a2000e4
:101bf40004aab900040378002e0290006022b90000
:101c04000402780004034300ae029000040a20009a
:101c1400042ab8000503430086027800048fbe003e
:101c24001e03be0044fd2f00f5ff2f0006024200f4
:101c340087824a00048fbe001e02be00e00f5200dd
:101c4400e08f5a0009003400040037001e02be0071
:101c54006b025200e0825a00048fbe001e02be00d6
:101c6400e00f5200e08f5a00f8ff3c000080fa00b9
:101c7400000006000400fa00100798000f00370067
:101c840044c0b300044f78000300370090012000e3
:101c940001002000d1ff07001e4278008482fb006f
:101ca4008502ea00cf2ade00854278000442e9007a
:101cb400044f7800e0cf5200f4ff3a001e02900077
:101cc40004f0a7000402ea000402ea004f22de0046
:101cd400044278009e0290008502e90015079800ee
:101ce400e04f5200e6ff3a000080fa0000000600d0
:020000040000fa
:101cf400a20800000a00000000000000ac08000078
:101d0400020000000000000000080000760000004f
:101d140002000000404b0100e2c04b000000d00074
:101d2400fc8c02009900390041d9be00860b2400c6
:101d3400067fa60000000000000000000000000074
:101d4400000000000000000000000000000000008f
:101d5400000000000073120000008000b43641004f
:101d64001004820020080800f27def00ff000f003d
:101d740001000200010303000400050060060f00d7
:101d840007070800000900000cc30d00c40ec500bd
:101d94000fc611002012200013201400201520006b
:101da40016201700001c01001d042a002b2c2d00f6
:101db40002000000760800002c0000000000000073
:041dc400000000001b
:020000040000fa
:0200000401f009
:04000000ffff0000fe
:020000040000fa
:0200000401f009
:04000800ffff0000f6
:020000040000fa
:0200000401f009
:04000c00d9ff000018
:020000040000fa
:0200000401f009
:040010001bff0000d2
:020000040000fa
:0200000401f009
:040014005fff00008a
:020000040000fa
:0200000401f009
:04001800ffff0000e6
:020000040000fa
:0200000401f009
:04001c00ffff0000e2
:020000040000fa
:0200000401f009
:040020007fff00005e
:00000001FF
