:020000040000fa
:080000000002040000000000f2
:020000040000fa
:10000800ea020000ea020000ea020000ea02000038
:10001800ea020000ea020000ea020000ea02000028
:10002800ea020000ea020000ea020000aa02000058
:10003800ea020000ea020000ea020000ea02000008
:10004800ea020000ea020000a2020000ea02000040
:10005800ea020000ea020000ea020000ea020000e8
:10006800ea0200009a020000ea020000d202000040
:10007800ea020000ea020000ea020000ea020000c8
:10008800ea020000ea020000ea020000ea020000b8
:10009800ea020000ea020000ea020000ea020000a8
:1000a800ea020000ea020000ea020000ea02000098
:1000b800ea020000ea020000ea020000ea02000088
:1000c800ea020000ea020000ea020000ea02000078
:1000d800ea020000ea020000ea020000ea02000068
:1000e800ea020000ea020000ea020000ea02000058
:1000f800ea020000ea020000ea020000ea02000048
:10010800ea020000ea020000ea020000ea02000037
:10011800ea020000ea020000ea020000ea02000027
:10012800ea020000ea020000ea020000ea02000017
:10013800ea020000ea020000ea020000ea02000007
:10014800ea020000ea020000ea020000ea020000f7
:10015800ea020000ea020000ea020000ea020000e7
:10016800ea020000ea020000ea020000ea020000d7
:10017800ea020000ea020000ea020000ea020000c7
:10018800ea020000ea020000ea020000ea020000b7
:10019800ea020000ea020000ea020000ea020000a7
:1001a800ea020000ea020000ea020000ea02000097
:1001b800ea020000ea020000ea020000ea02000087
:1001c800ea020000ea020000ea020000ea02000077
:1001d800ea020000ea020000ea020000ea02000067
:1001e800ea020000ea020000ea020000ea02000057
:0801f800ea020000ea02000027
:020000040000fa
:10020800ea020000ea020000ea020000ea02000036
:10021800ea020000ea020000ea020000ea02000026
:10022800ea020000ea020000ea020000aa02000056
:10023800ea020000ea020000ea020000ea02000006
:10024800ea020000ea020000a2020000ea0200003e
:10025800ea020000ea020000ea020000ea020000e6
:10026800ea0200009a020000ea020000d20200003e
:10027800ea020000ea020000ea020000ea020000c6
:10028800ea020000ea020000ea020000ea020000b6
:10029800ea020000ea020000ea020000ea020000a6
:1002a800ea020000ea020000ea020000ea02000096
:1002b800ea020000ea020000ea020000ea02000086
:1002c800ea020000ea020000ea020000ea02000076
:1002d800ea020000ea020000ea020000ea02000066
:1002e800ea020000ea020000ea020000ea02000056
:1002f800ea020000ea020000ea020000ea02000046
:10030800ea020000ea020000ea020000ea02000035
:10031800ea020000ea020000ea020000ea02000025
:10032800ea020000ea020000ea020000ea02000015
:10033800ea020000ea020000ea020000ea02000005
:10034800ea020000ea020000ea020000ea020000f5
:10035800ea020000ea020000ea020000ea020000e5
:10036800ea020000ea020000ea020000ea020000d5
:10037800ea020000ea020000ea020000ea020000c5
:10038800ea020000ea020000ea020000ea020000b5
:10039800ea020000ea020000ea020000ea020000a5
:1003a800ea020000ea020000ea020000ea02000095
:1003b800ea020000ea020000ea020000ea02000085
:1003c800ea020000ea020000ea020000ea02000075
:1003d800ea020000ea020000ea020000ea02000065
:1003e800ea020000ea020000ea020000ea02000055
:0803f800ea020000ea02000025
:020000040000fa
:100400004f8a20000eff20000e018800000000002f
:10041000000020000000e000020032000001200087
:10042000200288000c00070000d5200001002000f9
:1004300011000700000020000000e0000200320070
:100440000000020000000000420a0200000000005c
:100450000040da000000fe004440a9000000200037
:100460000000e0000300320000002000a00188002e
:100470004440a80000000600910188008000780038
:100480000000eb0015003700e280400032a0b4000d
:100490009101ba00e280400032a0b4009102ba009b
:1004a000e280400032a0b4000002eb00472bde00e7
:1004b000f507b200602ce10004003a000059eb009f
:1004c0008301e900fdff3e00040037006128e100e0
:1004d000010032000082eb00040007001101ba00a5
:1004e0000200e000e8ff3a00000006003159ba00bf
:1004f0008301e9000c0032002159ba008301e900b0
:10050000080032000400e00003003a00e2804000ee
:1005100032a0b400f5ff370011d9ba008301e90019
:10052000faff3a008100e800e180400032a0b40008
:10053000000006000000fa008620a9000080fa00f2
:10054000004006000000fa008540a9000080fa0083
:1005500000400600849fbe00861f78000000fa005d
:100560008460a90094872000144278000442e800c7
:100570000443780095872000864a7800848720000d
:10058000144278000442e800044378008587200084
:10059000864a78000080fa004f0378004f02be00c0
:1005a00000400600849fbe00861f78000000fa000d
:1005b0008660a90014c0b30004437800758720004a
:1005c000864a78000080fa004f0378004f02be0090
:1005d000004006000040da000000fe000600fa00bd
:1005e000000f780011079800220798001e0278007b
:1005f000141288001e029000241288002e0290001f
:10060000041288000080fa00000006000200fa00d0
:10061000000f78008460a9001e0278000442780070
:100620006742620067426200674262000482fb0028
:10063000670262004c22dd0026058000f5ff2800dd
:100640008502630005027200240588009e0278007e
:10065000688262004322de00044278006142620048
:100660000482fb00610262004322dd00a6048000d8
:1006700075ff2f008502630005027200a404880044
:100680000080fa00000006000200fa00000f780067
:1006900084e0a9001e0278000442780067426200ec
:1006a00067426200674262000482fb0067026200e8
:1006b0004c22dd0036058000f5ff2800850263002e
:1006c00005027200340588009e027800688262008c
:1006d0004322de0004427800614262000482fb0093
:1006e000610262004722dd00a6048000f5f72f00ba
:1006f0008502630005027200a40488000080fa00ed
:10070000000006000400fa00000f780011079800ae
:100710000002eb00040888001e0290001408880004
:100720001e027800240888000080fa0000000600fd
:100730000400fa00000f7800110798000002eb0097
:10074000340888001e029000640888001e027800a9
:10075000840888000080fa00000006000400fa0007
:10076000000f780011079800d40c80000442780034
:10077000674262000482fb0066026200e60f5200dc
:1007800006003a001e027800040d88001e02900048
:10079000f40c880014c0b3000100370000c2eb0065
:1007a000044078000080fa00000006000400fa000f
:1007b000000f780011079800240d80000442780093
:1007c000674262000482fb0066026200e60f52008c
:1007d00006003a001e027800540d88001e029000a8
:1007e000440d880014c0b3000100370000c2eb00c4
:1007f000044078000080fa00000006000800fa00bb
:10080000000f78001107980022079800330798001e
:10081000d40c80000400a1000410a1000420a10059
:10082000d40c88002e029000f40c88003e02900048
:10083000040d88001e029000e40c88001e0278005f
:10084000d40c88000080fa00000006000800fa00be
:10085000000f7800110798002207980033079800ce
:10086000240d80000400a1000410a1000420a100b8
:10087000240d88002e029000440d88003e02900056
:10088000540d88001e029000340d88001e0278006e
:10089000240d88000080fa000000060000027800a5
:1008a00002003700015a78000201e900e00f510010
:0808b000fcff3a000000060005
:020000040000fa
:1008b8000200fa000042eb00044f78000042eb000f
:1008c800144798000042eb00044f78001b003700e3
:1008d8009e4278000582fb00040242008402e80080
:1008e8003484200004824200944278001e43780039
:1008f8000682fb0004034200348420000402430003
:100908001443780004c2b3000442730085407800a1
:1009180004407800f00307009e4278000582fb003f
:100928008402420034842000048242001442780089
:1009380004407800bd0307001e4fe8001e427800ff
:10094800f44f5200e2ff360052c0b3001187200076
:10095800a0c2b300ef03070052c0b3001187200004
:1009680000c3b300eb030700d0c1b300af03070017
:1009780000427800144798001e429000e04f520051
:1009880003003a0031c7b30000c5b300d203070023
:1009980054c1b300044f78001b0037001e43780091
:1009a8000682fb00040242008402e800348420002e
:1009b80004824200944278001e4378000682fb00bd
:1009c80004034200348420000402430014437800e6
:1009d80004c2b300044273008540780004407800e4
:1009e800bd0307009e4278000582fb008402420096
:1009f80034842000048242001442780004407800c5
:100a08008a0307001e4fe8001e427800f64f520086
:100a1800e2ff36000080fa00000006000600fa0037
:100a28000042eb00044f78000042eb0014479800a6
:100a38006022b80014079800250798000042eb00d0
:100a4800044f7800250037000042eb001447980057
:100a5800170037001e4290000483fb009e40780078
:100a68000182fb00c222dd000480200004824200d3
:100a78001402be009e4390008783fb00c33bdd0049
:100a8800870078008100e900030033008502d10067
:100a98000482d300fbff3700844278000602470037
:100aa800254298001e4290000442e800144798002e
:100ab8001e429000e34f5200e6ff360004c2b30026
:100ac8001e4272008e82e80042c0b30085007800a2
:100ad800044078008f0307001e4fe8001e4278008c
:100ae800e84f5200d8ff360094c0b300044f780096
:100af800260037000042eb00144798001800370022
:100b08001e4290000483fb009e4278000582fb0091
:100b1800c222dd0004802000048242001402be00cc
:100b28009e4390008783fb00e3831300c33bdd00f3
:100b3800870078008100e900030033008502d100b6
:100b48000482d300fbff3700844278000602470086
:100b5800254298001e4290000442e800144798007d
:100b68001e429000e34f5200e5ff360004c2b30076
:100b78001e4272008e82e80042c0b30085007800f1
:100b880004407800630307001e4fe8001e42780007
:100b9800ed4f5200d7ff3600b2c0b300818320006a
:100ba800e0c2b3005b0307000042eb00044f78008b
:100bb800110037001e4278000483fb008440800047
:100bc800954080009e4078008183fb00c33bdd0098
:100bd800870078008100e900030033008502d10016
:100be8000482d300fbff37008442780006024700e6
:100bf800254298001e4fe8001e427800e34f52003d
:100c0800ecff36002e4290006440b3002447980061
:100c18000e82e80042c0b3008400780040c2b300ee
:100c28003c030700ae42900094cfb30004c26200b8
:100c3800244798000e82e80042c0b3008400780080
:100c480040c2b300330307000080fa00000006002a
:100c58000000fa004006200070030700cc82a900bb
:100c68000040eb003b00070011ff07004001200097
:100c78006a03070010c0b3003600070067ff0700cb
:100c880040012000650307000040eb003100070029
:100c9800080007008040eb0020ceb3000e030700d9
:100ca8008040eb0010ceb3000b0307000080fa0071
:100cb800000006000200fa000042eb00044f780032
:100cc8008040eb0020ceb3000303070001c7b30048
:100cd80070c2b30000030700cc82a9000040eb00fb
:100ce800d202070000427800044f78001e14a000ca
:100cf8001e04a0009e40780000c2b300f602070060
:100d0800cc82a8000080fa00000006000200fa0069
:100d18000042eb00044f78008040eb0010ceb30097
:100d2800ed020700cc82a9000040eb00bf020700db
:100d380000427800044f7800e4cfb3001e4f6200f1
:100d48009e40780000c2b300e30207000080fa006a
:100d5800000006000400fa00204798000042eb005b
:100d6800044f780070c0b300b0020700004278005a
:100d7800044f780004c8b3001e4f62001e4278007a
:100d8800e04f5200030032002e429000e04f520024
:100d9800060032001e427800e04f520006003a007a
:100da8002e429000e04f52000300320031c5b300dc
:100db80000c5b300c802070070c0b3009b0207005b
:100dc8000080fa00000006000400fa00204798009e
:100dd8000042eb00044f780060c0b30093020700a4
:100de80000427800044f780074cdb3001e4f6200b3
:100df8002e4290001e4f72009e40780060c2b300e1
:100e0800b502070060c0b300880207000080fa003e
:100e1800000006000400fa00204798000042eb009a
:100e2800044f780060c0b3008002070000427800d9
:100e3800044f780094cfb3001e4f62002e429000fa
:100e48001e4f72009e40780060c2b300a2020700e5
:100e580060c0b300750207000080fa0000000600b9
:100e68000400fa00204798000042eb00044f780085
:100e78000040eb006d02070000427800044f780044
:100e88002e429000e14f520006003a001e14a000c6
:100e98009e40780000c2b3008f020700cc82a800f1
:100ea80006003700cc82a900d4cfb3001e4f6200e1
:100eb8009e40780000c2b300870207000080fa0055
:100ec800000006000800fa00604798000042eb00a6
:100ed800044f7800110037009e4078000183fb0022
:100ee80084408000954080009e4078008183fb000c
:100ef800c33bdd00870078008100e9000300330070
:100f08008502d1000482d300fbff370084427800b9
:100f180006024700154298001e4fe8001e4278005e
:100f2800e34f5200ecff36006e429000e04f520053
:100f380005003200ae42900004c2b30004c2720041
:100f48002447980004003700ae429000f4cdb30067
:100f580004c26200244798000e02e800840078006a
:100f680040c2b300c50007000080fa000000060078
:100f78000600fa0010079800414798000042eb006d
:100f8800044f780061ff0700cc82a9004e41900011
:100f98009e00900000cab3005e020700cc82a80041
:100fa800600020000100200076020700cc82a90022
:100fb8000042eb000443780075872000864a7800d9
:100fc8000042eb000443780085872000864a7800b9
:100fd8000300370000000000010037000000000097
:100fe8007487200014427800e04f5200220032003b
:100ff8000042eb000443780075872000864a780099
:1010080070c0b3000902070000427800044f78005e
:101018001e4278008482fb000402200004826200e1
:10102800e00f520005003a009e4278000582fb005e
:1010380070026200e00f5200e6ff32001e437800a3
:101048000682fb0070026200e00f520003003200cb
:101058008040eb0010ceb3001f0207008040eb0079
:1010680020ceb3001c0207009e40780070c2b30077
:10107800190207000800370084872000144278000e
:10108800e94f5200d5ff36008040eb0010ceb30088
:10109800110207000000000006ff07000080fa00a8
:1010a800000006000400fa000042eb001447980014
:1010b8000042eb00244798000042eb00044f780000
:1010c8000042eb00344798007487200014427800ef
:1010d800e04f52002b00320070c0b300d30107006c
:1010e80000427800144798001e4290008482fb005a
:1010f8000404200004826200e00f52000f00320056
:1011080041c1b300a0872000ab000700004278006f
:1011180024479800ae409000a0872000bd0007003b
:1011280000427800344798003e429000e04f520059
:1011380002003a0014c0b300044f78001e42900029
:101148000482fb0070026200e00f520003003200cc
:101158008040eb0010ceb300df0107000042eb0037
:101168000443780075872000864a78008040eb00a9
:1011780020ceb300d80107009e40900070c2b30093
:10118800d50107001e427800044078000080fa006c
:10119800000006000200fa00004f7800114798008e
:1011a8001e4290000482fb00e20f52000900320048
:1011b800e30f520010003200e10f520017003a000e
:1011c80044c0b3000443780015892000864a78009b
:1011d80012003700a4c0b30004437800158920002a
:1011e800864a7800620020008105200020892000be
:1011f800a8fd07000900370044c1b3000443780084
:1012080015892000864a780002012000210a200062
:10121800208920009ffd0700000000009e42780002
:10122800f4882000054a78000489200014427800d8
:101238000442e8008442780006892000054b7800c3
:101248000042eb0084427800e6882000054b7800d5
:10125800148920001442780084407800e088200037
:101268006c0007000042780084427800e68820007d
:10127800054b78000080fa00000006000400fa0020
:10128800004f78001107980010c0b300b1fe0700a6
:1012980042c0b3009e0090001e4078009d010700e8
:1012a8000040eb00abfe07000080fa0000000600db
:1012b8000400fa00004f78001107980010c0b3002e
:1012c800a4fe070042c0b3009e0090001e407800b4
:1012d800640107000040eb009efe07000080fa0052
:1012e800000006000400fa006022b800048fbe0067
:1012f8008e00780080c0b300edff07001e42780022
:10130800044078000080fa00000006000600fa0099
:101318000042eb00044f7800110037009e4078002f
:101328000183fb0084408000954080009e40780047
:101338008183fb00c33bdd00870078008100e90062
:10134800030033008502d1000482d300fbff37007d
:101358008442780006024700154298001e4fe800b4
:101368001e427800e34f5200ecff3600ae42900078
:10137800f4ceb30004c26200244798000e02e800cd
:101388008400780040c2b300bcff07000080fa0068
:10139800000006000400fa00000f780021479800ba
:1013a8002e4190009e00780000cab3005901070042
:1013b8000080fa00000006000600fa0010079800f6
:1013c800414798000042eb00044f780000c6b30084
:1013d8001601070000427800044f78004e42900042
:1013e8009e42780084cf5200020036004e429000a0
:1013f800044f78001e4178009e00900010c6b3008c
:10140800180107001e427800044078000080fa00a6
:10141800000006000600fa001007980041479800ef
:101428000042eb00044f7800060037001e029000cf
:10143800144278001e4f42001e0290000402e80089
:10144800140798004e4290000482fb000402ea0050
:101458004f22de0004427800ce4290008542e90027
:1014680045479800e04f5200f0ff3a001ec2ea00dc
:10147800044078000080fa00000006000c00fa0022
:101488004007980051079800243a80000480a10082
:101498000490a10004a0a100243a88000002eb00f7
:1014a800042788000002eb0014278800c8e2a9007e
:1014b800cce2a900cc42a900c442a900cd02a900ef
:1014c800c462a900c042a900c062a900c842a9001c
:1014d800c902a900790007008500070091000700ec
:1014e800b6000700dafd0700f2fd07000300370029
:1014f800000000000100370000000000e9fe0700be
:1015080000427800e04f5200f9ff3200d4872000f3
:1015180014427800e04f5200f7ff3200e4872000c1
:10152800144278000482fb0024079800f487200006
:10153800144278000482fb00340798002e029000c1
:10154800f40fb000240798002e0290008408b10020
:10155800240798003e029000f40fb000340798006a
:101568003e029000b408b10034079800ae02900023
:10157800f40f2000848f52000d0036002e029000d8
:10158800f40fb100240798002e0290008402d100c5
:101598003e029000048f42002e0290000402d10007
:1015a800be02900004825200140798000d00370014
:1015b800f50f20002e0290000482520024079800a4
:1015c8002e0290000402d100be029000048f520047
:1015d8002e0290008402d1003e0290000482420054
:1015e80014079800f40f20009e027800848f5200a0
:1015f80005003600cd02a900cc42a80014f02f0047
:101608001e0f420004003700cc42a900cd02a800fa
:10161800f40f20001e0f52009e029000f40f2000cd
:10162800848f520006003600c462a900c442a80094
:101638001e029000f40fb10014079800060037004e
:10164800c442a900c462a800f50f20001e02900041
:1016580004825200140798001e0278004222dd001e
:10166800040f7800843e20009e027800848f520088
:1016780002003600843e2000040f78001e0290000d
:101688004222dd00140798009e029000843e20004c
:10169800848f520002003600843e20001407980010
:1016a800813e20001e0078002afc0700813e2000b1
:1016b8001e0090003bfc070090ff37000000fa0076
:1016c800a0ff2f00cffb0700a10f2000d0fa2d00ac
:1016d8000afc070070ff2f00e9fb07002103200028
:1016e800d0f82d0010fc07000080fa00000006006a
:1016f8000000fa00431f2000823e2000f1852400ec
:10170800e0062c003bfc0700431f2000823e20001f
:10171800f1852400e0062c004afc07000080fa004e
:10172800000006000000fa00c082a8006200a800bd
:101738006e00a9005600a9008660a9009660a8005e
:101748006405800004c0a10004d0a10004e0a0004a
:1017580064058800141680004422de00614262009d
:101768000482fb00610262004722dd0066168000e9
:10177800f5f72f00850263000502720064168800e1
:101788000080fa00000006000600fa00041220009b
:10179800040f78000002eb001407980004002800ea
:1017a800240798002e0190009e0090001e007800eb
:1017b80088fb07000080fa00000006000000fa001d
:1017c800c882a900c9e2a900c082a800c982a900ec
:1017d800c9a2a900c9c2a800ebff07000080fa004f
:1017e800000006000400fa00204798008540a90080
:1017f8002e4290000482fb00441288000000000082
:10180800250480000440200004826200e00f52009a
:10181800fbff320044128000044f78001e4278001b
:10182800044078000080fa00000006000400fa0076
:1018380020479800cde2a9002e409000e9ff07005c
:101848000040eb00e7ff070000427800044f7800f3
:10185800cde2a8001e427800044078000080fa001b
:10186800000006000600fa00004f780011079800f3
:1018780042479800cde2a9001e407800d9ff070032
:10188800080037000040eb00d6ff07000042780050
:101898009e029000844a78001e0290000402e8002c
:1018a800140798004e4290000482fb000402ea00ec
:1018b8004f22de0004427800ce4290008542e900c3
:1018c80045479800e04f5200eeff3a00cde2a800ed
:1018d8000080fa00000006000200fa00004f7800bd
:1018e80011479800cde2a9001e407800bdff07000f
:1018f8001e409000bbff07000042780004437800b8
:10190800258a2000864a7800cde2a8000080fa00e7
:10191800000006000600fa00004f78001107980042
:1019280042479800cde2a9001e407800adff0700ad
:10193800070037001e029000144278009e029000b3
:101948008502e8001507980004407800a5ff070005
:101958004e4290000482fb000402ea004f22de009f
:1019680004427800ce4290008542e900454798003d
:10197800e04f5200efff3a00cde2a8000080fa00e5
:10198800000006000800fa002007980031079800b8
:10199800be029000040a200004aab90004037800db
:1019a8002e0290006022b90004027800040343006c
:1019b800ae029000040a2000042ab8000503430080
:1019c80086027800048fbe001e03be0044fd2f006f
:1019d800f5ff2f000602420087824a00048fbe00ee
:1019e8001e02be00e00f5200e08f5a0009003400ca
:1019f800040037001e02be006b025200e0825a004b
:101a0800048fbe001e02be00e00f5200e08f5a0095
:101a1800f8ff3c000080fa00000006000400fa000d
:101a2800100798000f00370044c0b300044f780037
:101a3800030037009001200001002000d1ff0700bb
:101a48001e4278008482fb008502ea00cf2ade006d
:101a5800854278000442e900044f7800e0cf520044
:101a6800f4ff3a001e02900004f0a7000402ea0006
:101a78000402ea004f22de00044278009e02900031
:101a88008502e90015079800e04f5200e6ff3a008a
:081a98000080fa0000000600c6
:020000040000fa
:101aa000a208000002000000000000000008000082
:101ab0007600000002000000404b0100e2c04b0035
:101ac0000000d000fc8c02009900390041d9be0012
:101ad000860b2400067fa600000000000000000026
:101ae00000000000000000000000000000000000f6
:101af00000000000000000000073120000008000e1
:101b0000b43641001004820020080800f27def0086
:101b1000ff000f00010002000103030004000500a4
:101b200060060f0007070800000900000cc30d0045
:101b3000c40ec5000fc6110020122000132014008f
:101b40002015200016201700001c01001d042a008b
:101b50002b2c2d0002000000760800002c00000055
:081b600000000000000000007d
:020000040000fa
:0200000401f009
:04000000ffff0000fe
:020000040000fa
:0200000401f009
:04000800ffff0000f6
:020000040000fa
:0200000401f009
:04000c00d9ff000018
:020000040000fa
:0200000401f009
:040010001bff0000d2
:020000040000fa
:0200000401f009
:040014005fff00008a
:020000040000fa
:0200000401f009
:04001800ffff0000e6
:020000040000fa
:0200000401f009
:04001c00feff0000e3
:020000040000fa
:0200000401f009
:040020007fff00005e
:00000001FF
