:020000040000fa
:080000000002040000000000f2
:020000040000fa
:10000800e0020000e0020000e0020000e002000060
:10001800e0020000e0020000e0020000e002000050
:10002800e0020000e0020000e0020000b802000068
:10003800e0020000e0020000e0020000e002000030
:10004800e0020000e0020000b0020000e002000050
:10005800e0020000e0020000e0020000e002000010
:10006800e0020000a8020000e0020000d002000048
:10007800e0020000e0020000e0020000e0020000f0
:10008800e0020000e0020000e0020000e0020000e0
:10009800e0020000e0020000e0020000e0020000d0
:1000a800e0020000e0020000e0020000e0020000c0
:1000b800e0020000e0020000e0020000e0020000b0
:1000c800e0020000e0020000e0020000e0020000a0
:1000d800e0020000e0020000e0020000e002000090
:1000e800e0020000e0020000e0020000e002000080
:1000f800e0020000e0020000e0020000e002000070
:10010800e0020000e0020000e0020000e00200005f
:10011800e0020000e0020000e0020000e00200004f
:10012800e0020000e0020000e0020000e00200003f
:10013800e0020000e0020000e0020000e00200002f
:10014800e0020000e0020000e0020000e00200001f
:10015800e0020000e0020000e0020000e00200000f
:10016800e0020000e0020000e0020000e0020000ff
:10017800e0020000e0020000e0020000e0020000ef
:10018800e0020000e0020000e0020000e0020000df
:10019800e0020000e0020000e0020000e0020000cf
:1001a800e0020000e0020000e0020000e0020000bf
:1001b800e0020000e0020000e0020000e0020000af
:1001c800e0020000e0020000e0020000e00200009f
:1001d800e0020000e0020000e0020000e00200008f
:1001e800e0020000e0020000e0020000e00200007f
:0801f800e0020000e00200003b
:020000040000fa
:10020800e0020000e0020000e0020000e00200005e
:10021800e0020000e0020000e0020000e00200004e
:10022800e0020000e0020000e0020000b802000066
:10023800e0020000e0020000e0020000e00200002e
:10024800e0020000e0020000b0020000e00200004e
:10025800e0020000e0020000e0020000e00200000e
:10026800e0020000a8020000e0020000d002000046
:10027800e0020000e0020000e0020000e0020000ee
:10028800e0020000e0020000e0020000e0020000de
:10029800e0020000e0020000e0020000e0020000ce
:1002a800e0020000e0020000e0020000e0020000be
:1002b800e0020000e0020000e0020000e0020000ae
:1002c800e0020000e0020000e0020000e00200009e
:1002d800e0020000e0020000e0020000e00200008e
:1002e800e0020000e0020000e0020000e00200007e
:1002f800e0020000e0020000e0020000e00200006e
:10030800e0020000e0020000e0020000e00200005d
:10031800e0020000e0020000e0020000e00200004d
:10032800e0020000e0020000e0020000e00200003d
:10033800e0020000e0020000e0020000e00200002d
:10034800e0020000e0020000e0020000e00200001d
:10035800e0020000e0020000e0020000e00200000d
:10036800e0020000e0020000e0020000e0020000fd
:10037800e0020000e0020000e0020000e0020000ed
:10038800e0020000e0020000e0020000e0020000dd
:10039800e0020000e0020000e0020000e0020000cd
:1003a800e0020000e0020000e0020000e0020000bd
:1003b800e0020000e0020000e0020000e0020000ad
:1003c800e0020000e0020000e0020000e00200009d
:1003d800e0020000e0020000e0020000e00200008d
:1003e800e0020000e0020000e0020000e00200007d
:0803f800e0020000e002000039
:020000040000fa
:10040000ef8e20000eff20000e018800000000008b
:10041000000020000000e000020032000001200087
:10042000200288000c000700c0af2000010020005f
:1004300011000700000020000000e0000200320070
:100440000000020000000000b809020000000000e7
:100450000040da000000fe004440a900e000200057
:100460000000e0000300320000002000a00188002e
:100470004440a80000000600910188008000780038
:100480000000eb0015003700e280400032a0b4000d
:100490009101ba00e280400032a0b4009102ba009b
:1004a000e280400032a0b4000002eb00472bde00e7
:1004b000f507b200602ce10004003a000059eb009f
:1004c0008301e900fdff3e00040037006128e100e0
:1004d000010032000082eb000b00070011c3ba00dc
:1004e0001101ba000604e00003003a000200e00037
:1004f000e5ff3a0000000600f607b200960188000a
:1005000082007800f5ff37003159ba008301e90015
:100510000c0032002159ba008301e90008003200c2
:100520000400e00003003a00e280400032a0b40082
:10053000f5ff370011d9ba008301e900faff3a004c
:100540008100e800e180400032a0b4000000060015
:100550000000fa008620a9000080fa000040060092
:100560000000fa008540a9000080fa000040060063
:10057000801f78000000fa008460a900c3c8bf0093
:100580000040e800c3e8b700c2c8bf000040e80070
:10059000c2e8b7000080fa004f0078000040060073
:1005a000801f78000000fa008660a90010c0b30028
:1005b000c1e8b7000080fa004f0078000040060054
:1005c0000040da000000fe001012880021128800ae
:1005d00002128800000006008460a900e7006000a5
:1005e000f2ff2800cc08dd00230580000301610034
:1005f000680060000281700071ff2f0022058800f2
:10060000a20480008280600081007000a104880044
:100610000000060084e0a900e7006000f2ff280067
:10062000cc08dd0033058000030161006800600034
:10063000028170004300de00320588006100600026
:10064000f1f72f004700dd00a204800082806000e7
:1006500081007000a1048800000006000021ef0066
:100660001108880020088800000006000621ef001d
:1006700061088800800888000000060084ff2f00c1
:1006800005192000950a6200a20c8800b30c8800ae
:10069000910c8800800c8800000006008001780022
:1006a00002003700b15978000201e9000200e000c1
:1006b000fcff3a00000006008001780002003700cd
:1006c000815978000201e9000200e000fcff3a00d5
:0406d0000000060020
:020000040000fa
:1006d400486500006c6c00006f200000576f00003c
:0c06e400726c00006421000000000000a7
:020000040000fa
:1006f0000200fa000040eb00004f78000040eb00e1
:10070000104798000040eb00004f780015003700bc
:100710001e80fb00000040008000e80030842000c4
:1007200000804000904078001e80fb0000014000e7
:1007300030842000000041001041780000c2b30066
:1007400000407100e30207001e80fb0080004000b3
:10075000308420000080400010407800b50207007f
:100760001e4fe8001e407800f44f5000e8ff3600ae
:1007700052c0b30011872000a0c2b300e1020700fd
:1007800052c0b3001187200000c3b300dd02070090
:10079000d0c1b300a7020700104798001e40900088
:1007a0000004e00003003a0031c7b30000c5b30005
:1007b000c802070050c1b300004f78001500370091
:1007c0001e80fb00000040008000e8003084200014
:1007d00000804000904078001e80fb000001400037
:1007e00030842000000041001041780000c2b300b6
:1007f00000407100b70207001e80fb00800040002f
:1008000030842000008040001040780089020700fa
:100810001e4fe8001e407800f64f5000e8ff3600fb
:100820000080fa00000006000600fa000040eb001d
:10083000004f78000040eb00104798006000b800bf
:1008400010079800210798000040eb00004f780047
:10085000220037000040eb001047980016003700d8
:100860001e4090000081fb001e80fb00c200dd00e6
:1008700000802000008040001000be009e419000db
:100880008381fb00c319dd00030278000402e90044
:10089000030033008100d1000080d300fbff37004c
:1008a0008040780002004700214098001e409000e0
:1008b0000040e800104798001e409000e34f5000b1
:1008c000e7ff360000c2b3001e4070008e80e800d3
:1008d00042c0b3008b0207001e4fe8001e407800a4
:1008e000e84f5000dbff360090c0b300004f7800a7
:1008f000230037000040eb00104798001700370036
:100900001e4090000081fb001e80fb00c200dd0045
:1009100000802000008040001000be009e4190003a
:100920008381fb00e3811100c319dd00030278001d
:100930000402e900030033008100d1000080d300ed
:10094000fbff3700804078000200470021409800fc
:100950001e4090000040e800104798001e409000a4
:10096000e34f5000e6ff360000c2b3001e407000a7
:100970008e80e80042c0b300620207001e4fe8000c
:100980001e407800ed4f5000daff3600b2c0b300d1
:1009900081832000e0c2b3005a0207000040eb0050
:1009a000004f78000f0037001e81fb008040800060
:1009b000914080009e81fb00c319dd000302780096
:1009c0000402e900030033008100d1000080d3005d
:1009d000fbff37008040780002004700214098006c
:1009e0001e4fe8001e407800e34f5000eeff360037
:1009f0002e4090006040b300204798000e80e80031
:100a000042c0b3008000780040c2b3003d0207003e
:100a1000ae40900090cfb30000c060002047980027
:100a20000e80e80042c0b3008000780040c2b300ee
:100a3000340207000080fa00000006000000fa00ff
:100a400040062000cd020700cc82a9000040eb0048
:100a50003900070026ff070040012000c7020700f9
:100a600010c0b300340007006fff070040012000f2
:100a7000c20207000040eb002f000700080007003b
:100a80008040eb0020ceb300120207008040eb0054
:100a900010ceb3000f0207000080fa00000006002d
:100aa0000200fa000040eb00004f78008040eb00ad
:100ab00020ceb3000702070001c7b30070c2b30025
:100ac00004020700cc82a9000040eb00d901070016
:100ad000004f78001e14a0001e04a0009e40780065
:100ae00000c2b300fb010700cc82a8000080fa001e
:100af000000006000200fa000040eb00004f780002
:100b00008040eb0010ceb300f2010700cc82a900b8
:100b10000040eb00c7010700004f7800e0cfb300b2
:100b20001e4f60009e40780000c2b300e90107003c
:100b30000080fa00000006000400fa002047980038
:100b40000040eb00004f780070c0b300b90107000f
:100b5000004f780000c8b3001e4f60001e407800b0
:100b60000004e000030032002e4090000004e0008a
:100b7000060032001e4078000004e00006003a0043
:100b80002e4090000004e0000300320031c5b300a5
:100b900000c5b300cf01070070c0b300a501070076
:100ba0000080fa00000006000400fa0020479800c8
:100bb0000040eb00004f780060c0b3009d010700cb
:100bc000004f780070cdb3001e4f60002e409000a3
:100bd0001e4f70009e40780060c2b300bd01070048
:100be00060c0b300930107000080fa000000060017
:100bf0000400fa00204798000040eb00004f780006
:100c000060c0b3008b010700004f780090cfb300a5
:100c10001e4f60002e4090001e4f70009e407800d6
:100c200060c2b300ab01070060c0b30081010700e0
:100c30000080fa00000006000400fa002047980037
:100c40000040eb00004f78000040eb007901070006
:100c5000004f78002e409000e14f500006003a000f
:100c60001e14a0009e40780000c2b3009901070046
:100c7000cc82a80006003700cc82a900d0cfb300f8
:100c80001e4f60009e40780000c2b3009101070033
:100c90000080fa00000006000800fa006047980093
:100ca0000040eb00004f78000f0037001e81fb0072
:100cb00080408000914080009e81fb00c319dd00d0
:100cc000030278000402e900030033008100d10030
:100cd0000080d300fbff370080407800020047000f
:100ce000114098001e4fe8001e407800e34f50006e
:100cf000eeff36006e4090000004e0000500320078
:100d0000ae40900000c2b30000c0700020479800c1
:100d100004003700ae409000f0cdb30000c060008a
:100d2000204798000e00e8008000780040c2b30021
:100d30009e0007000080fa00000006000600fa008e
:100d400010079800414798000040eb00004f7800e2
:100d500068ff0700cc82a9004e4190009e009000e1
:100d600000cab30067010700cc82a8006000200021
:100d700001002000dd010700cc82a900c168ef005e
:100d8000c268ef00030037000000000001003700d8
:100d900000000000c1c8bf000004e0001b003200da
:100da000c168ef0070c0b30022010700004f780057
:100db0009e80fb0000022000008060000000e00038
:100dc00004003a001e80fb00700060000000e0009c
:100dd000edff32001e80fb00700060000000e000ac
:100de000030032008040eb0010ceb3003901070051
:100df0008040eb0020ceb300360107009e40780013
:100e000070c2b3003301070007003700c2c8bf003b
:100e1000e94f5000deff36008040eb0010ceb300fb
:100e20002c010700000000001dff07000080fa00f1
:100e3000000006000400fa000040eb001047980094
:100e40000040eb00204798000040eb00004f780086
:100e50000040eb0030479800c1c8bf000004e0002c
:100e60002500320070c0b300f20007001047980060
:100e70001e4090008080fb00000420000080600085
:100e80000000e0000d00320041c1b300408c2000a2
:100e90009200070020479800ae409000408c200050
:100ea000a3000700304798003e4090000004e00097
:100eb00002003a0010c0b300004f78001e409000be
:100ec0000080fb00700060000000e00003003200c2
:100ed0008040eb0010ceb300fe000700c168ef00b9
:100ee0008040eb0020ceb300fa0007009e40900047
:100ef00070c2b300f70007001e4078000080fa00bf
:100f0000000006000200fa00004f78001147980028
:100f10001e4090000080fb00e20f500007003200ee
:100f2000e30f50000c003200e10f500011003a00b6
:100f300040c0b300dbe8b7000e003700a0c0b3002c
:100f4000dbe8b7006200200081052000c08d200092
:100f5000d9fd07000700370040c1b300dbe8b70048
:100f600002012000210a2000c08d2000d2fd0700d0
:100f7000000000001e417800918d2000824878001a
:100f8000dac8bf000040e800dae8b700d868ef0030
:100f9000dbc8bf0080407800808d2000640007001f
:100fa000d8e8b7000080fa00000006000400fa004c
:100fb000004f78001107980010c0b300defe070054
:100fc00042c0b3009e0090001e407800cd00070094
:100fd0000040eb00d8fe07000080fa000000060089
:100fe0000400fa00004f78001107980010c0b30009
:100ff000d1fe070042c0b3009e0090001e40780062
:10100000980007000040eb00cbfe07000080fa00cc
:10101000000006000400fa006000b800008fbe0067
:101020008e00780080c0b300edff07001e407800fe
:101030000080fa00000006000600fa000040eb0005
:10104000004f78000f0037001e81fb0080408000b9
:10105000914080009e81fb00c319dd0003027800ef
:101060000402e900030033008100d1000080d300b6
:10107000fbff3700804078000200470011409800d5
:101080001e4fe8001e407800e34f5000eeff360090
:10109000ae409000f0ceb30000c060002047980042
:1010a0000e00e8008000780040c2b300bfff0700d8
:1010b0000080fa00000006000400fa00000f78002b
:1010c000214798002e4190009e00780000cab3008e
:1010d0008c0007000080fa00000006000600fa00fd
:1010e00010079800414798000040eb00004f78003f
:1010f00000c6b3004f000700004f78004e4090003c
:101100009e40780080cf500002003600ce40900014
:10111000014f78001e4178009e00900010c6b30079
:10112000500007001e4078000080fa000000060012
:101130000600fa0010079800414798000040eb00b5
:10114000004f7800060037001e0090001040780025
:101150001e4f40001e0090000000e800100798009d
:101160004e4090000080fb000000ea004f00de00cf
:1011700000407800ce4090008140e900414798004f
:101180000004e000f0ff3a001ec0ea000080fa0010
:10119000000006000600fa0000122000000f780090
:1011a0000000eb00100798000000280020079800be
:1011b0002e0190009e0090001e00780002fd0700a6
:1011c0000080fa00000006000000fa00c882a900b2
:1011d000c9e2a900c082a800c982a900c9a2a900c9
:1011e000c9c2a800ebff07000080fa00000006005b
:1011f0000400fa00204798008540a9002e40900086
:101200000080fb00401288000000000021048000e4
:1012100000402000008060000000e000fbff320082
:1012200040128000004f78001e4078000080fa00d5
:10123000000006000400fa0020479800cde2a90053
:101240002e409000eaff07000040eb00e8ff070097
:10125000004f7800cde2a8001e4078000080fa0020
:10126000000006000600fa00004f78001107980001
:1012700042479800cde2a9001e407800dcff07003d
:10128000070037000040eb00d9ff07009e009000e8
:10129000804878001e0090000000e80010079800c9
:1012a0004e4090000080fb000000ea004f00de008e
:1012b00000407800ce4090008140e900414798000e
:1012c0000004e000efff3a00cde2a8000080fa0041
:1012d000000006000200fa00004f78001147980055
:1012e000cde2a9001e407800c1ff07001e4090001b
:1012f000bfff0700ece8b700cde2a8000080fa00cd
:10130000000006000600fa00004f78001107980060
:1013100042479800cde2a9001e407800b4ff0700c4
:10132000060037001e009000104078009e009000dc
:101330008100e80011079800adff07004e409000c3
:101340000080fb000000ea004f00de000040780053
:10135000ce4090008140e900414798000004e00041
:10136000f0ff3a00cde2a8000080fa00000006007d
:101370000400fa00000f780011079800203a80005e
:101380000080a1000090a10000a0a100203a8800e8
:10139000e024ef00e224ef00c8e2a900cce2a900bb
:1013a0002400070038000700d2002000a1362800e2
:1013b00020892000b9fc070083ff07009ffd07007c
:1013c00040c1b30077e8b70070c0b30076e8b7005b
:1013d000f0c0b30078e8b70021c0b300a0ccb300e0
:1013e000c8fe0700dbc8bf0080407800808d200069
:1013f00052fe070050c0b3008eff0700bce8b700e4
:1014000004ff0700bde8b700be68ef00803e200083
:101410005a00070021c0b300a0ccb300b9fe0700fa
:10142000dbc8bf0080407800808d200043fe0700ad
:10143000f6ff37000000fa00a0ff2f0066fc07004f
:10144000a10f2000d0fa2d0084fc070070ff2f00b0
:1014500070fc0700a10f2000d0f92d0083fc0700cd
:101460000080fa00000006000000fa00431f200080
:10147000823e2000f1852400e0062c007ffc07005e
:101480000080fa00000006000000fa00c082a800f8
:101490006200a8006e00a9005600a9008660a9009d
:1014a0009660a8006005800000c0a10000d0a100e7
:1014b00000e0a00060058800101680004400de00f7
:1014c000614060000080fb00610060004700dd00bb
:1014d00062168000f1f72f008100610001007000aa
:1014e000601688000080fa00000006000800fa007c
:1014f0002007980031079800be009000000a2000e5
:101500000088b900000178002e0090006000b9004a
:101510000000780000014100ae009000000a2000a9
:101520000008b8000101410082007800008fbe0071
:101530001e00be00c002b1000180b100008fbe00dd
:101540001e00be00e00f5000e08f5800090034007c
:10155000040037001e00be006b005000e080580001
:10156000008fbe001e00be00e00f5000e08f58004c
:10157000f8ff3c000080fa00000006000400fa00ba
:10158000100798000f00370040c0b300004f7800ec
:10159000030037009001200001002000d3ff070066
:1015a0001e4078008080fb008100ea00cf08de004a
:1015b000814078000040e900004f78000104e0001d
:1015c000f4ff3a001e00900000f0a7000000ea00bf
:1015d0000000ea004f00de00004078009e0090000e
:1015e0008100e900110798000004e000e6ff3a00de
:0815f0000080fa000000060073
:020000040000fa
:1015f800760800004a00000000000000ec08000027
:101608000200000000000000000800007600000052
:1016180002000000404b0100e2c04b000000d00077
:10162800fc8c02009900390041d9be00860b2400c9
:10163800067fa60000000000000000000000000077
:101648000000000000000000000000000000000092
:10165800000000000073120000008000b436410052
:101668001004820020080800f27def00ff000f0040
:1016780001000200010303000400050060060f00da
:1016880007070800000900000cc30d00c40ec500c0
:101698000fc611002012200013201400201520006e
:1016a80016201700001c01001d042a002b2c2d00f9
:1016b80002000000c00800002c000000000000002c
:0416c800660b80002d
:020000040000fa
:0416cc00000000001a
:020000040000fa
:0200000401f009
:04000000ffff0000fe
:020000040000fa
:0200000401f009
:04000800ffff0000f6
:020000040000fa
:0200000401f009
:04000c00d9ff000018
:020000040000fa
:0200000401f009
:040010001bff0000d2
:020000040000fa
:0200000401f009
:040014005fff00008a
:020000040000fa
:0200000401f009
:04001800ffff0000e6
:020000040000fa
:0200000401f009
:04001c00ffff0000e2
:020000040000fa
:0200000401f009
:040020007fff00005e
:00000001FF
